{
  "_format": "hh-sol-artifact-1",
  "contractName": "KYCRegistry",
  "sourceName": "contracts/KYCRegisterV2.sol",
  "abi": [
    {
      "inputs": [],
      "name": "InvalidInitialization",
      "type": "error"
    },
    {
      "inputs": [],
      "name": "NotInitializing",
      "type": "error"
    },
    {
      "anonymous": false,
      "inputs": [
        {
          "indexed": false,
          "internalType": "uint64",
          "name": "version",
          "type": "uint64"
        }
      ],
      "name": "Initialized",
      "type": "event"
    },
    {
      "anonymous": false,
      "inputs": [
        {
          "indexed": true,
          "internalType": "address",
          "name": "user",
          "type": "address"
        },
        {
          "indexed": false,
          "internalType": "string",
          "name": "ipfsHash",
          "type": "string"
        }
      ],
      "name": "KYCSubmitted",
      "type": "event"
    },
    {
      "anonymous": false,
      "inputs": [
        {
          "indexed": true,
          "internalType": "address",
          "name": "user",
          "type": "address"
        },
        {
          "indexed": false,
          "internalType": "bool",
          "name": "verified",
          "type": "bool"
        }
      ],
      "name": "KYCVerified",
      "type": "event"
    },
    {
      "anonymous": false,
      "inputs": [
        {
          "indexed": true,
          "internalType": "address",
          "name": "user",
          "type": "address"
        },
        {
          "indexed": false,
          "internalType": "address",
          "name": "verifier",
          "type": "address"
        }
      ],
      "name": "VerifierAccessGranted",
      "type": "event"
    },
    {
      "anonymous": false,
      "inputs": [
        {
          "indexed": true,
          "internalType": "address",
          "name": "user",
          "type": "address"
        },
        {
          "indexed": false,
          "internalType": "address",
          "name": "verifier",
          "type": "address"
        }
      ],
      "name": "VerifierAccessRevoked",
      "type": "event"
    },
    {
      "inputs": [
        {
          "internalType": "address",
          "name": "_verifier",
          "type": "address"
        }
      ],
      "name": "addVerifier",
      "outputs": [],
      "stateMutability": "nonpayable",
      "type": "function"
    },
    {
      "inputs": [],
      "name": "authority",
      "outputs": [
        {
          "internalType": "address",
          "name": "",
          "type": "address"
        }
      ],
      "stateMutability": "view",
      "type": "function"
    },
    {
      "inputs": [
        {
          "internalType": "address",
          "name": "_verifier",
          "type": "address"
        }
      ],
      "name": "disableVerifier",
      "outputs": [],
      "stateMutability": "nonpayable",
      "type": "function"
    },
    {
      "inputs": [
        {
          "internalType": "address",
          "name": "_user",
          "type": "address"
        }
      ],
      "name": "getKYCData",
      "outputs": [
        {
          "components": [
            {
              "internalType": "string",
              "name": "ipfsHash",
              "type": "string"
            },
            {
              "internalType": "bool",
              "name": "verified",
              "type": "bool"
            },
            {
              "internalType": "uint256",
              "name": "time",
              "type": "uint256"
            }
          ],
          "internalType": "struct KYCRegistry.KYCData",
          "name": "",
          "type": "tuple"
        }
      ],
      "stateMutability": "view",
      "type": "function"
    },
    {
      "inputs": [
        {
          "internalType": "uint256",
          "name": "_nid",
          "type": "uint256"
        }
      ],
      "name": "getWalletOwner",
      "outputs": [
        {
          "internalType": "address",
          "name": "",
          "type": "address"
        }
      ],
      "stateMutability": "view",
      "type": "function"
    },
    {
      "inputs": [
        {
          "internalType": "address",
          "name": "_verifier",
          "type": "address"
        }
      ],
      "name": "grantAccess",
      "outputs": [],
      "stateMutability": "nonpayable",
      "type": "function"
    },
    {
      "inputs": [],
      "name": "initialize",
      "outputs": [],
      "stateMutability": "nonpayable",
      "type": "function"
    },
    {
      "inputs": [
        {
          "internalType": "address",
          "name": "",
          "type": "address"
        }
      ],
      "name": "listOfVerifier",
      "outputs": [
        {
          "internalType": "bool",
          "name": "",
          "type": "bool"
        }
      ],
      "stateMutability": "view",
      "type": "function"
    },
    {
      "inputs": [
        {
          "internalType": "address",
          "name": "_verifier",
          "type": "address"
        }
      ],
      "name": "revokeAccess",
      "outputs": [],
      "stateMutability": "nonpayable",
      "type": "function"
    },
    {
      "inputs": [
        {
          "internalType": "address",
          "name": "_walletContract",
          "type": "address"
        }
      ],
      "name": "setWalletContract",
      "outputs": [],
      "stateMutability": "nonpayable",
      "type": "function"
    },
    {
      "inputs": [
        {
          "internalType": "string",
          "name": "_ipfsHash",
          "type": "string"
        },
        {
          "internalType": "uint256",
          "name": "_nid",
          "type": "uint256"
        }
      ],
      "name": "submitKYC",
      "outputs": [],
      "stateMutability": "nonpayable",
      "type": "function"
    },
    {
      "inputs": [
        {
          "internalType": "address",
          "name": "",
          "type": "address"
        },
        {
          "internalType": "uint256",
          "name": "",
          "type": "uint256"
        }
      ],
      "name": "userGrantedAccess",
      "outputs": [
        {
          "internalType": "address",
          "name": "",
          "type": "address"
        }
      ],
      "stateMutability": "view",
      "type": "function"
    },
    {
      "inputs": [
        {
          "internalType": "address",
          "name": "",
          "type": "address"
        },
        {
          "internalType": "address",
          "name": "",
          "type": "address"
        }
      ],
      "name": "verifierPermissions",
      "outputs": [
        {
          "internalType": "bool",
          "name": "",
          "type": "bool"
        }
      ],
      "stateMutability": "view",
      "type": "function"
    },
    {
      "inputs": [
        {
          "internalType": "address",
          "name": "_user",
          "type": "address"
        },
        {
          "internalType": "bool",
          "name": "_verified",
          "type": "bool"
        }
      ],
      "name": "verifyKYC",
      "outputs": [],
      "stateMutability": "nonpayable",
      "type": "function"
    },
    {
      "inputs": [],
      "name": "walletContract",
      "outputs": [
        {
          "internalType": "contract IWalletContract",
          "name": "",
          "type": "address"
        }
      ],
      "stateMutability": "view",
      "type": "function"
    }
  ],
  "bytecode": "0x608060405234801561001057600080fd5b506120c1806100206000396000f3fe608060405234801561001057600080fd5b50600436106100f55760003560e01c80639000b3d611610097578063b4a688d111610066578063b4a688d11461026c578063bf7e214f14610288578063cc346726146102a6578063d0ed5c2f146102d6576100f5565b80639000b3d6146101c0578063978575ea146101dc578063aa2270c31461020c578063ab47a2f91461023c576100f5565b806344cfd456116100d357806344cfd4561461014e578063474adb8f1461017e5780638129fc1c1461019a57806385e68531146101a4576100f5565b80630ae5e739146100fa57806327ccdbc5146101165780633b03790c14610132575b600080fd5b610114600480360381019061010f9190611474565b6102f4565b005b610130600480360381019061012b9190611474565b610506565b005b61014c6004803603810190610147919061161d565b6105d8565b005b61016860048036038101906101639190611679565b610768565b60405161017591906116b5565b60405180910390f35b61019860048036038101906101939190611708565b61080d565b005b6101a2610a92565b005b6101be60048036038101906101b99190611474565b610c57565b005b6101da60048036038101906101d59190611474565b610dc9565b005b6101f660048036038101906101f19190611748565b610eb2565b60405161020391906116b5565b60405180910390f35b61022660048036038101906102219190611788565b610f00565b60405161023391906117d7565b60405180910390f35b61025660048036038101906102519190611474565b610f2f565b60405161026391906118df565b60405180910390f35b61028660048036038101906102819190611474565b611218565b005b610290611301565b60405161029d91906116b5565b60405180910390f35b6102c060048036038101906102bb9190611474565b611325565b6040516102cd91906117d7565b60405180910390f35b6102de611345565b6040516102eb9190611960565b60405180910390f35b600260008273ffffffffffffffffffffffffffffffffffffffff1673ffffffffffffffffffffffffffffffffffffffff16815260200190815260200160002060009054906101000a900460ff16610380576040517f08c379a0000000000000000000000000000000000000000000000000000000008152600401610377906119d8565b60405180910390fd5b6001600360003373ffffffffffffffffffffffffffffffffffffffff1673ffffffffffffffffffffffffffffffffffffffff16815260200190815260200160002060008373ffffffffffffffffffffffffffffffffffffffff1673ffffffffffffffffffffffffffffffffffffffff16815260200190815260200160002060006101000a81548160ff021916908315150217905550600460003373ffffffffffffffffffffffffffffffffffffffff1673ffffffffffffffffffffffffffffffffffffffff168152602001908152602001600020819080600181540180825580915050600190039060005260206000200160009091909190916101000a81548173ffffffffffffffffffffffffffffffffffffffff021916908373ffffffffffffffffffffffffffffffffffffffff1602179055503373ffffffffffffffffffffffffffffffffffffffff167f2bfb37b25e6fbbc82573d0ca66d84b9943f3d136c3325e3f352c5b7b7baac4a2826040516104fb91906116b5565b60405180910390a250565b60008054906101000a900473ffffffffffffffffffffffffffffffffffffffff1673ffffffffffffffffffffffffffffffffffffffff163373ffffffffffffffffffffffffffffffffffffffff1614610594576040517f08c379a000000000000000000000000000000000000000000000000000000000815260040161058b90611a44565b60405180910390fd5b80600560006101000a81548173ffffffffffffffffffffffffffffffffffffffff021916908373ffffffffffffffffffffffffffffffffffffffff16021790555050565b3373ffffffffffffffffffffffffffffffffffffffff166105f882610768565b73ffffffffffffffffffffffffffffffffffffffff161461064e576040517f08c379a000000000000000000000000000000000000000000000000000000000815260040161064590611ad6565b60405180910390fd5b600160003373ffffffffffffffffffffffffffffffffffffffff1673ffffffffffffffffffffffffffffffffffffffff168152602001908152602001600020604051806060016040528084815260200160001515815260200142815250908060018154018082558091505060019003906000526020600020906003020160009091909190915060008201518160000190816106e99190611cf8565b5060208201518160010160006101000a81548160ff0219169083151502179055506040820151816002015550503373ffffffffffffffffffffffffffffffffffffffff167fe3f81b273b142548431346476607dda7126d68317c9b8a1bbee298bc274dc5b08360405161075c9190611e03565b60405180910390a25050565b6000600560009054906101000a900473ffffffffffffffffffffffffffffffffffffffff1673ffffffffffffffffffffffffffffffffffffffff166344cfd456836040518263ffffffff1660e01b81526004016107c59190611e34565b602060405180830381865afa1580156107e2573d6000803e3d6000fd5b505050506040513d601f19601f820116820180604052508101906108069190611e64565b9050919050565b600260003373ffffffffffffffffffffffffffffffffffffffff1673ffffffffffffffffffffffffffffffffffffffff16815260200190815260200160002060009054906101000a900460ff16610899576040517f08c379a0000000000000000000000000000000000000000000000000000000008152600401610890906119d8565b60405180910390fd5b60011515600360008473ffffffffffffffffffffffffffffffffffffffff1673ffffffffffffffffffffffffffffffffffffffff16815260200190815260200160002060003373ffffffffffffffffffffffffffffffffffffffff1673ffffffffffffffffffffffffffffffffffffffff16815260200190815260200160002060009054906101000a900460ff16151514610969576040517f08c379a000000000000000000000000000000000000000000000000000000000815260040161096090611edd565b60405180910390fd5b60006109748361136b565b9050600081116109b9576040517f08c379a00000000000000000000000000000000000000000000000000000000081526004016109b090611f6f565b60405180910390fd5b81600160008573ffffffffffffffffffffffffffffffffffffffff1673ffffffffffffffffffffffffffffffffffffffff168152602001908152602001600020600183610a069190611fbe565b81548110610a1757610a16611ff2565b5b906000526020600020906003020160010160006101000a81548160ff0219169083151502179055508273ffffffffffffffffffffffffffffffffffffffff167f7a02eb9b107b2ab713e88c3cd7ac538e5c21b689d0f1b1f22367578b28fc5d0983604051610a8591906117d7565b60405180910390a2505050565b6000610a9c6113b7565b905060008160000160089054906101000a900460ff1615905060008260000160009054906101000a900467ffffffffffffffff1690506000808267ffffffffffffffff16148015610aea5750825b9050600060018367ffffffffffffffff16148015610b1f575060003073ffffffffffffffffffffffffffffffffffffffff163b145b905081158015610b2d575080155b15610b64576040517ff92ee8a900000000000000000000000000000000000000000000000000000000815260040160405180910390fd5b60018560000160006101000a81548167ffffffffffffffff021916908367ffffffffffffffff1602179055508315610bb45760018560000160086101000a81548160ff0219169083151502179055505b336000806101000a81548173ffffffffffffffffffffffffffffffffffffffff021916908373ffffffffffffffffffffffffffffffffffffffff1602179055508315610c505760008560000160086101000a81548160ff0219169083151502179055507fc7f505b2f371ae2175ee4913f4499e1f2633a7b5936321eed1cdaeb6115181d26001604051610c479190612070565b60405180910390a15b5050505050565b600260008273ffffffffffffffffffffffffffffffffffffffff1673ffffffffffffffffffffffffffffffffffffffff16815260200190815260200160002060009054906101000a900460ff16610ce3576040517f08c379a0000000000000000000000000000000000000000000000000000000008152600401610cda906119d8565b60405180910390fd5b6000600360003373ffffffffffffffffffffffffffffffffffffffff1673ffffffffffffffffffffffffffffffffffffffff16815260200190815260200160002060008373ffffffffffffffffffffffffffffffffffffffff1673ffffffffffffffffffffffffffffffffffffffff16815260200190815260200160002060006101000a81548160ff0219169083151502179055503373ffffffffffffffffffffffffffffffffffffffff167ff06057cc48dd5f9878f47f79f2df8762ff5ba40b0fc2712114a3b2313774f59282604051610dbe91906116b5565b60405180910390a250565b60008054906101000a900473ffffffffffffffffffffffffffffffffffffffff1673ffffffffffffffffffffffffffffffffffffffff163373ffffffffffffffffffffffffffffffffffffffff1614610e57576040517f08c379a0000000000000000000000000000000000000000000000000000000008152600401610e4e90611a44565b60405180910390fd5b6001600260008373ffffffffffffffffffffffffffffffffffffffff1673ffffffffffffffffffffffffffffffffffffffff16815260200190815260200160002060006101000a81548160ff02191690831515021790555050565b60046020528160005260406000208181548110610ece57600080fd5b906000526020600020016000915091509054906101000a900473ffffffffffffffffffffffffffffffffffffffff1681565b60036020528160005260406000206020528060005260406000206000915091509054906101000a900460ff1681565b610f376113df565b600260003373ffffffffffffffffffffffffffffffffffffffff1673ffffffffffffffffffffffffffffffffffffffff16815260200190815260200160002060009054906101000a900460ff16610fc3576040517f08c379a0000000000000000000000000000000000000000000000000000000008152600401610fba906119d8565b60405180910390fd5b60011515600360008473ffffffffffffffffffffffffffffffffffffffff1673ffffffffffffffffffffffffffffffffffffffff16815260200190815260200160002060003373ffffffffffffffffffffffffffffffffffffffff1673ffffffffffffffffffffffffffffffffffffffff16815260200190815260200160002060009054906101000a900460ff16151514611093576040517f08c379a000000000000000000000000000000000000000000000000000000000815260040161108a90611edd565b60405180910390fd5b600061109e8361136b565b9050600081116110e3576040517f08c379a00000000000000000000000000000000000000000000000000000000081526004016110da90611f6f565b60405180910390fd5b600160008473ffffffffffffffffffffffffffffffffffffffff1673ffffffffffffffffffffffffffffffffffffffff16815260200190815260200160002060018261112f9190611fbe565b815481106111405761113f611ff2565b5b906000526020600020906003020160405180606001604052908160008201805461116990611b25565b80601f016020809104026020016040519081016040528092919081815260200182805461119590611b25565b80156111e25780601f106111b7576101008083540402835291602001916111e2565b820191906000526020600020905b8154815290600101906020018083116111c557829003601f168201915b505050505081526020016001820160009054906101000a900460ff16151515158152602001600282015481525050915050919050565b60008054906101000a900473ffffffffffffffffffffffffffffffffffffffff1673ffffffffffffffffffffffffffffffffffffffff163373ffffffffffffffffffffffffffffffffffffffff16146112a6576040517f08c379a000000000000000000000000000000000000000000000000000000000815260040161129d90611a44565b60405180910390fd5b6000600260008373ffffffffffffffffffffffffffffffffffffffff1673ffffffffffffffffffffffffffffffffffffffff16815260200190815260200160002060006101000a81548160ff02191690831515021790555050565b60008054906101000a900473ffffffffffffffffffffffffffffffffffffffff1681565b60026020528060005260406000206000915054906101000a900460ff1681565b600560009054906101000a900473ffffffffffffffffffffffffffffffffffffffff1681565b6000600160008373ffffffffffffffffffffffffffffffffffffffff1673ffffffffffffffffffffffffffffffffffffffff168152602001908152602001600020805490509050919050565b60007ff0c57e16840df040f15088dc2f81fe391c3923bec73e23a9662efc9c229c6a00905090565b604051806060016040528060608152602001600015158152602001600081525090565b6000604051905090565b600080fd5b600080fd5b600073ffffffffffffffffffffffffffffffffffffffff82169050919050565b600061144182611416565b9050919050565b61145181611436565b811461145c57600080fd5b50565b60008135905061146e81611448565b92915050565b60006020828403121561148a5761148961140c565b5b60006114988482850161145f565b91505092915050565b600080fd5b600080fd5b6000601f19601f8301169050919050565b7f4e487b7100000000000000000000000000000000000000000000000000000000600052604160045260246000fd5b6114f4826114ab565b810181811067ffffffffffffffff82111715611513576115126114bc565b5b80604052505050565b6000611526611402565b905061153282826114eb565b919050565b600067ffffffffffffffff821115611552576115516114bc565b5b61155b826114ab565b9050602081019050919050565b82818337600083830152505050565b600061158a61158584611537565b61151c565b9050828152602081018484840111156115a6576115a56114a6565b5b6115b1848285611568565b509392505050565b600082601f8301126115ce576115cd6114a1565b5b81356115de848260208601611577565b91505092915050565b6000819050919050565b6115fa816115e7565b811461160557600080fd5b50565b600081359050611617816115f1565b92915050565b600080604083850312156116345761163361140c565b5b600083013567ffffffffffffffff81111561165257611651611411565b5b61165e858286016115b9565b925050602061166f85828601611608565b9150509250929050565b60006020828403121561168f5761168e61140c565b5b600061169d84828501611608565b91505092915050565b6116af81611436565b82525050565b60006020820190506116ca60008301846116a6565b92915050565b60008115159050919050565b6116e5816116d0565b81146116f057600080fd5b50565b600081359050611702816116dc565b92915050565b6000806040838503121561171f5761171e61140c565b5b600061172d8582860161145f565b925050602061173e858286016116f3565b9150509250929050565b6000806040838503121561175f5761175e61140c565b5b600061176d8582860161145f565b925050602061177e85828601611608565b9150509250929050565b6000806040838503121561179f5761179e61140c565b5b60006117ad8582860161145f565b92505060206117be8582860161145f565b9150509250929050565b6117d1816116d0565b82525050565b60006020820190506117ec60008301846117c8565b92915050565b600081519050919050565b600082825260208201905092915050565b60005b8381101561182c578082015181840152602081019050611811565b60008484015250505050565b6000611843826117f2565b61184d81856117fd565b935061185d81856020860161180e565b611866816114ab565b840191505092915050565b61187a816116d0565b82525050565b611889816115e7565b82525050565b600060608301600083015184820360008601526118ac8282611838565b91505060208301516118c16020860182611871565b5060408301516118d46040860182611880565b508091505092915050565b600060208201905081810360008301526118f9818461188f565b905092915050565b6000819050919050565b600061192661192161191c84611416565b611901565b611416565b9050919050565b60006119388261190b565b9050919050565b600061194a8261192d565b9050919050565b61195a8161193f565b82525050565b60006020820190506119756000830184611951565b92915050565b600082825260208201905092915050565b7f5665726966696572206e6f7420666f756e6420696e206c697374000000000000600082015250565b60006119c2601a8361197b565b91506119cd8261198c565b602082019050919050565b600060208201905081810360008301526119f1816119b5565b9050919050565b7f4f6e6c7920617574686f72697479000000000000000000000000000000000000600082015250565b6000611a2e600e8361197b565b9150611a39826119f8565b602082019050919050565b60006020820190508181036000830152611a5d81611a21565b9050919050565b7f4e6f7420617574686f72697a656420746f207375626d6974204b59432064617460008201527f6100000000000000000000000000000000000000000000000000000000000000602082015250565b6000611ac060218361197b565b9150611acb82611a64565b604082019050919050565b60006020820190508181036000830152611aef81611ab3565b9050919050565b7f4e487b7100000000000000000000000000000000000000000000000000000000600052602260045260246000fd5b60006002820490506001821680611b3d57607f821691505b602082108103611b5057611b4f611af6565b5b50919050565b60008190508160005260206000209050919050565b60006020601f8301049050919050565b600082821b905092915050565b600060088302611bb87fffffffffffffffffffffffffffffffffffffffffffffffffffffffffffffffff82611b7b565b611bc28683611b7b565b95508019841693508086168417925050509392505050565b6000611bf5611bf0611beb846115e7565b611901565b6115e7565b9050919050565b6000819050919050565b611c0f83611bda565b611c23611c1b82611bfc565b848454611b88565b825550505050565b600090565b611c38611c2b565b611c43818484611c06565b505050565b5b81811015611c6757611c5c600082611c30565b600181019050611c49565b5050565b601f821115611cac57611c7d81611b56565b611c8684611b6b565b81016020851015611c95578190505b611ca9611ca185611b6b565b830182611c48565b50505b505050565b600082821c905092915050565b6000611ccf60001984600802611cb1565b1980831691505092915050565b6000611ce88383611cbe565b9150826002028217905092915050565b611d01826117f2565b67ffffffffffffffff811115611d1a57611d196114bc565b5b611d248254611b25565b611d2f828285611c6b565b600060209050601f831160018114611d625760008415611d50578287015190505b611d5a8582611cdc565b865550611dc2565b601f198416611d7086611b56565b60005b82811015611d9857848901518255600182019150602085019450602081019050611d73565b86831015611db55784890151611db1601f891682611cbe565b8355505b6001600288020188555050505b505050505050565b6000611dd5826117f2565b611ddf818561197b565b9350611def81856020860161180e565b611df8816114ab565b840191505092915050565b60006020820190508181036000830152611e1d8184611dca565b905092915050565b611e2e816115e7565b82525050565b6000602082019050611e496000830184611e25565b92915050565b600081519050611e5e81611448565b92915050565b600060208284031215611e7a57611e7961140c565b5b6000611e8884828501611e4f565b91505092915050565b7f4e6f7420617574686f72697a656420746f207665726966790000000000000000600082015250565b6000611ec760188361197b565b9150611ed282611e91565b602082019050919050565b60006020820190508181036000830152611ef681611eba565b9050919050565b7f4e6f204b5943206461746120617661696c61626c6520666f722074686973207560008201527f7365722e00000000000000000000000000000000000000000000000000000000602082015250565b6000611f5960248361197b565b9150611f6482611efd565b604082019050919050565b60006020820190508181036000830152611f8881611f4c565b9050919050565b7f4e487b7100000000000000000000000000000000000000000000000000000000600052601160045260246000fd5b6000611fc9826115e7565b9150611fd4836115e7565b9250828203905081811115611fec57611feb611f8f565b5b92915050565b7f4e487b7100000000000000000000000000000000000000000000000000000000600052603260045260246000fd5b6000819050919050565b600067ffffffffffffffff82169050919050565b600061205a61205561205084612021565b611901565b61202b565b9050919050565b61206a8161203f565b82525050565b60006020820190506120856000830184612061565b9291505056fea264697066735822122046c90b90ab4e7d37b5f0cb93cedd0ccce77e595f9f905833587cf74b52105cb464736f6c63430008180033",
  "linkReferences": {},
  "deployedLinkReferences": {}
}