{
  "_format": "hh-sol-artifact-1",
  "contractName": "KYCRegistry",
  "sourceName": "contracts/KYCRegisterV2.sol",
  "abi": [
    {
      "inputs": [],
      "stateMutability": "nonpayable",
      "type": "constructor"
    },
    {
      "anonymous": false,
      "inputs": [
        {
          "indexed": true,
          "internalType": "address",
          "name": "user",
          "type": "address"
        },
        {
          "indexed": false,
          "internalType": "string",
          "name": "ipfsHash",
          "type": "string"
        }
      ],
      "name": "KYCSubmitted",
      "type": "event"
    },
    {
      "anonymous": false,
      "inputs": [
        {
          "indexed": true,
          "internalType": "address",
          "name": "user",
          "type": "address"
        },
        {
          "indexed": false,
          "internalType": "bool",
          "name": "verified",
          "type": "bool"
        }
      ],
      "name": "KYCVerified",
      "type": "event"
    },
    {
      "anonymous": false,
      "inputs": [
        {
          "indexed": true,
          "internalType": "address",
          "name": "user",
          "type": "address"
        },
        {
          "indexed": false,
          "internalType": "address",
          "name": "verifier",
          "type": "address"
        }
      ],
      "name": "VerifierAccessGranted",
      "type": "event"
    },
    {
      "anonymous": false,
      "inputs": [
        {
          "indexed": true,
          "internalType": "address",
          "name": "user",
          "type": "address"
        },
        {
          "indexed": false,
          "internalType": "address",
          "name": "verifier",
          "type": "address"
        }
      ],
      "name": "VerifierAccessRevoked",
      "type": "event"
    },
    {
      "inputs": [
        {
          "internalType": "address",
          "name": "_verifier",
          "type": "address"
        }
      ],
      "name": "addVerifier",
      "outputs": [],
      "stateMutability": "nonpayable",
      "type": "function"
    },
    {
      "inputs": [],
      "name": "authority",
      "outputs": [
        {
          "internalType": "address",
          "name": "",
          "type": "address"
        }
      ],
      "stateMutability": "view",
      "type": "function"
    },
    {
      "inputs": [
        {
          "internalType": "address",
          "name": "_verifier",
          "type": "address"
        }
      ],
      "name": "disableVerifier",
      "outputs": [],
      "stateMutability": "nonpayable",
      "type": "function"
    },
    {
      "inputs": [
        {
          "internalType": "address",
          "name": "_user",
          "type": "address"
        }
      ],
      "name": "getKYCData",
      "outputs": [
        {
          "components": [
            {
              "internalType": "string",
              "name": "ipfsHash",
              "type": "string"
            },
            {
              "internalType": "bool",
              "name": "verified",
              "type": "bool"
            },
            {
              "internalType": "uint256",
              "name": "time",
              "type": "uint256"
            }
          ],
          "internalType": "struct KYCRegistry.KYCData",
          "name": "",
          "type": "tuple"
        }
      ],
      "stateMutability": "view",
      "type": "function"
    },
    {
      "inputs": [
        {
          "internalType": "address",
          "name": "_verifier",
          "type": "address"
        }
      ],
      "name": "grantAccess",
      "outputs": [],
      "stateMutability": "nonpayable",
      "type": "function"
    },
    {
      "inputs": [
        {
          "internalType": "address",
          "name": "",
          "type": "address"
        }
      ],
      "name": "listOfVerifier",
      "outputs": [
        {
          "internalType": "bool",
          "name": "",
          "type": "bool"
        }
      ],
      "stateMutability": "view",
      "type": "function"
    },
    {
      "inputs": [
        {
          "internalType": "address",
          "name": "_verifier",
          "type": "address"
        }
      ],
      "name": "revokeAccess",
      "outputs": [],
      "stateMutability": "nonpayable",
      "type": "function"
    },
    {
      "inputs": [
        {
          "internalType": "string",
          "name": "_ipfsHash",
          "type": "string"
        },
        {
          "internalType": "uint256",
          "name": "_nid",
          "type": "uint256"
        },
        {
          "internalType": "address",
          "name": "factoryAdd",
          "type": "address"
        }
      ],
      "name": "submitKYC",
      "outputs": [],
      "stateMutability": "nonpayable",
      "type": "function"
    },
    {
      "inputs": [
        {
          "internalType": "address",
          "name": "",
          "type": "address"
        },
        {
          "internalType": "address",
          "name": "",
          "type": "address"
        }
      ],
      "name": "verifierPermissions",
      "outputs": [
        {
          "internalType": "bool",
          "name": "",
          "type": "bool"
        }
      ],
      "stateMutability": "view",
      "type": "function"
    },
    {
      "inputs": [
        {
          "internalType": "address",
          "name": "_user",
          "type": "address"
        },
        {
          "internalType": "bool",
          "name": "_verified",
          "type": "bool"
        }
      ],
      "name": "verifyKYC",
      "outputs": [],
      "stateMutability": "nonpayable",
      "type": "function"
    }
  ],
  "bytecode": "0x608060405234801561001057600080fd5b50336000806101000a81548173ffffffffffffffffffffffffffffffffffffffff021916908373ffffffffffffffffffffffffffffffffffffffff160217905550611a72806100606000396000f3fe608060405234801561001057600080fd5b506004361061009e5760003560e01c8063aa2270c311610066578063aa2270c31461012f578063ab47a2f91461015f578063b4a688d11461018f578063bf7e214f146101ab578063cc346726146101c95761009e565b80630ae5e739146100a35780631658145a146100bf578063474adb8f146100db57806385e68531146100f75780639000b3d614610113575b600080fd5b6100bd60048036038101906100b89190610f7f565b6101f9565b005b6100d960048036038101906100d49190611128565b61036b565b005b6100f560048036038101906100f091906111cf565b610579565b005b610111600480360381019061010c9190610f7f565b6107fe565b005b61012d60048036038101906101289190610f7f565b610970565b005b6101496004803603810190610144919061120f565b610a59565b604051610156919061125e565b60405180910390f35b61017960048036038101906101749190610f7f565b610a88565b6040516101869190611366565b60405180910390f35b6101a960048036038101906101a49190610f7f565b610d71565b005b6101b3610e5a565b6040516101c09190611397565b60405180910390f35b6101e360048036038101906101de9190610f7f565b610e7e565b6040516101f0919061125e565b60405180910390f35b600260008273ffffffffffffffffffffffffffffffffffffffff1673ffffffffffffffffffffffffffffffffffffffff16815260200190815260200160002060009054906101000a900460ff16610285576040517f08c379a000000000000000000000000000000000000000000000000000000000815260040161027c9061140f565b60405180910390fd5b6001600360003373ffffffffffffffffffffffffffffffffffffffff1673ffffffffffffffffffffffffffffffffffffffff16815260200190815260200160002060008373ffffffffffffffffffffffffffffffffffffffff1673ffffffffffffffffffffffffffffffffffffffff16815260200190815260200160002060006101000a81548160ff0219169083151502179055503373ffffffffffffffffffffffffffffffffffffffff167f2bfb37b25e6fbbc82573d0ca66d84b9943f3d136c3325e3f352c5b7b7baac4a2826040516103609190611397565b60405180910390a250565b600081905060008173ffffffffffffffffffffffffffffffffffffffff16637e2e038b856040518263ffffffff1660e01b81526004016103ab919061143e565b602060405180830381865afa1580156103c8573d6000803e3d6000fd5b505050506040513d601f19601f820116820180604052508101906103ec919061146e565b90503373ffffffffffffffffffffffffffffffffffffffff168173ffffffffffffffffffffffffffffffffffffffff161461045c576040517f08c379a0000000000000000000000000000000000000000000000000000000008152600401610453906114e7565b60405180910390fd5b600160003373ffffffffffffffffffffffffffffffffffffffff1673ffffffffffffffffffffffffffffffffffffffff168152602001908152602001600020604051806060016040528087815260200160001515815260200142815250908060018154018082558091505060019003906000526020600020906003020160009091909190915060008201518160000190816104f79190611713565b5060208201518160010160006101000a81548160ff0219169083151502179055506040820151816002015550503373ffffffffffffffffffffffffffffffffffffffff167fe3f81b273b142548431346476607dda7126d68317c9b8a1bbee298bc274dc5b08660405161056a919061181e565b60405180910390a25050505050565b600260003373ffffffffffffffffffffffffffffffffffffffff1673ffffffffffffffffffffffffffffffffffffffff16815260200190815260200160002060009054906101000a900460ff16610605576040517f08c379a00000000000000000000000000000000000000000000000000000000081526004016105fc9061140f565b60405180910390fd5b60011515600360008473ffffffffffffffffffffffffffffffffffffffff1673ffffffffffffffffffffffffffffffffffffffff16815260200190815260200160002060003373ffffffffffffffffffffffffffffffffffffffff1673ffffffffffffffffffffffffffffffffffffffff16815260200190815260200160002060009054906101000a900460ff161515146106d5576040517f08c379a00000000000000000000000000000000000000000000000000000000081526004016106cc9061188c565b60405180910390fd5b60006106e083610e9e565b905060008111610725576040517f08c379a000000000000000000000000000000000000000000000000000000000815260040161071c9061191e565b60405180910390fd5b81600160008573ffffffffffffffffffffffffffffffffffffffff1673ffffffffffffffffffffffffffffffffffffffff168152602001908152602001600020600183610772919061196d565b81548110610783576107826119a1565b5b906000526020600020906003020160010160006101000a81548160ff0219169083151502179055508273ffffffffffffffffffffffffffffffffffffffff167f7a02eb9b107b2ab713e88c3cd7ac538e5c21b689d0f1b1f22367578b28fc5d09836040516107f1919061125e565b60405180910390a2505050565b600260008273ffffffffffffffffffffffffffffffffffffffff1673ffffffffffffffffffffffffffffffffffffffff16815260200190815260200160002060009054906101000a900460ff1661088a576040517f08c379a00000000000000000000000000000000000000000000000000000000081526004016108819061140f565b60405180910390fd5b6000600360003373ffffffffffffffffffffffffffffffffffffffff1673ffffffffffffffffffffffffffffffffffffffff16815260200190815260200160002060008373ffffffffffffffffffffffffffffffffffffffff1673ffffffffffffffffffffffffffffffffffffffff16815260200190815260200160002060006101000a81548160ff0219169083151502179055503373ffffffffffffffffffffffffffffffffffffffff167ff06057cc48dd5f9878f47f79f2df8762ff5ba40b0fc2712114a3b2313774f592826040516109659190611397565b60405180910390a250565b60008054906101000a900473ffffffffffffffffffffffffffffffffffffffff1673ffffffffffffffffffffffffffffffffffffffff163373ffffffffffffffffffffffffffffffffffffffff16146109fe576040517f08c379a00000000000000000000000000000000000000000000000000000000081526004016109f590611a1c565b60405180910390fd5b6001600260008373ffffffffffffffffffffffffffffffffffffffff1673ffffffffffffffffffffffffffffffffffffffff16815260200190815260200160002060006101000a81548160ff02191690831515021790555050565b60036020528160005260406000206020528060005260406000206000915091509054906101000a900460ff1681565b610a90610eea565b600260003373ffffffffffffffffffffffffffffffffffffffff1673ffffffffffffffffffffffffffffffffffffffff16815260200190815260200160002060009054906101000a900460ff16610b1c576040517f08c379a0000000000000000000000000000000000000000000000000000000008152600401610b139061140f565b60405180910390fd5b60011515600360008473ffffffffffffffffffffffffffffffffffffffff1673ffffffffffffffffffffffffffffffffffffffff16815260200190815260200160002060003373ffffffffffffffffffffffffffffffffffffffff1673ffffffffffffffffffffffffffffffffffffffff16815260200190815260200160002060009054906101000a900460ff16151514610bec576040517f08c379a0000000000000000000000000000000000000000000000000000000008152600401610be39061188c565b60405180910390fd5b6000610bf783610e9e565b905060008111610c3c576040517f08c379a0000000000000000000000000000000000000000000000000000000008152600401610c339061191e565b60405180910390fd5b600160008473ffffffffffffffffffffffffffffffffffffffff1673ffffffffffffffffffffffffffffffffffffffff168152602001908152602001600020600182610c88919061196d565b81548110610c9957610c986119a1565b5b9060005260206000209060030201604051806060016040529081600082018054610cc290611536565b80601f0160208091040260200160405190810160405280929190818152602001828054610cee90611536565b8015610d3b5780601f10610d1057610100808354040283529160200191610d3b565b820191906000526020600020905b815481529060010190602001808311610d1e57829003601f168201915b505050505081526020016001820160009054906101000a900460ff16151515158152602001600282015481525050915050919050565b60008054906101000a900473ffffffffffffffffffffffffffffffffffffffff1673ffffffffffffffffffffffffffffffffffffffff163373ffffffffffffffffffffffffffffffffffffffff1614610dff576040517f08c379a0000000000000000000000000000000000000000000000000000000008152600401610df690611a1c565b60405180910390fd5b6000600260008373ffffffffffffffffffffffffffffffffffffffff1673ffffffffffffffffffffffffffffffffffffffff16815260200190815260200160002060006101000a81548160ff02191690831515021790555050565b60008054906101000a900473ffffffffffffffffffffffffffffffffffffffff1681565b60026020528060005260406000206000915054906101000a900460ff1681565b6000600160008373ffffffffffffffffffffffffffffffffffffffff1673ffffffffffffffffffffffffffffffffffffffff168152602001908152602001600020805490509050919050565b604051806060016040528060608152602001600015158152602001600081525090565b6000604051905090565b600080fd5b600080fd5b600073ffffffffffffffffffffffffffffffffffffffff82169050919050565b6000610f4c82610f21565b9050919050565b610f5c81610f41565b8114610f6757600080fd5b50565b600081359050610f7981610f53565b92915050565b600060208284031215610f9557610f94610f17565b5b6000610fa384828501610f6a565b91505092915050565b600080fd5b600080fd5b6000601f19601f8301169050919050565b7f4e487b7100000000000000000000000000000000000000000000000000000000600052604160045260246000fd5b610fff82610fb6565b810181811067ffffffffffffffff8211171561101e5761101d610fc7565b5b80604052505050565b6000611031610f0d565b905061103d8282610ff6565b919050565b600067ffffffffffffffff82111561105d5761105c610fc7565b5b61106682610fb6565b9050602081019050919050565b82818337600083830152505050565b600061109561109084611042565b611027565b9050828152602081018484840111156110b1576110b0610fb1565b5b6110bc848285611073565b509392505050565b600082601f8301126110d9576110d8610fac565b5b81356110e9848260208601611082565b91505092915050565b6000819050919050565b611105816110f2565b811461111057600080fd5b50565b600081359050611122816110fc565b92915050565b60008060006060848603121561114157611140610f17565b5b600084013567ffffffffffffffff81111561115f5761115e610f1c565b5b61116b868287016110c4565b935050602061117c86828701611113565b925050604061118d86828701610f6a565b9150509250925092565b60008115159050919050565b6111ac81611197565b81146111b757600080fd5b50565b6000813590506111c9816111a3565b92915050565b600080604083850312156111e6576111e5610f17565b5b60006111f485828601610f6a565b9250506020611205858286016111ba565b9150509250929050565b6000806040838503121561122657611225610f17565b5b600061123485828601610f6a565b925050602061124585828601610f6a565b9150509250929050565b61125881611197565b82525050565b6000602082019050611273600083018461124f565b92915050565b600081519050919050565b600082825260208201905092915050565b60005b838110156112b3578082015181840152602081019050611298565b60008484015250505050565b60006112ca82611279565b6112d48185611284565b93506112e4818560208601611295565b6112ed81610fb6565b840191505092915050565b61130181611197565b82525050565b611310816110f2565b82525050565b6000606083016000830151848203600086015261133382826112bf565b915050602083015161134860208601826112f8565b50604083015161135b6040860182611307565b508091505092915050565b600060208201905081810360008301526113808184611316565b905092915050565b61139181610f41565b82525050565b60006020820190506113ac6000830184611388565b92915050565b600082825260208201905092915050565b7f5665726966696572206e6f7420666f756e6420696e206c697374000000000000600082015250565b60006113f9601a836113b2565b9150611404826113c3565b602082019050919050565b60006020820190508181036000830152611428816113ec565b9050919050565b611438816110f2565b82525050565b6000602082019050611453600083018461142f565b92915050565b60008151905061146881610f53565b92915050565b60006020828403121561148457611483610f17565b5b600061149284828501611459565b91505092915050565b7f55736572206e6f7420666f756e64000000000000000000000000000000000000600082015250565b60006114d1600e836113b2565b91506114dc8261149b565b602082019050919050565b60006020820190508181036000830152611500816114c4565b9050919050565b7f4e487b7100000000000000000000000000000000000000000000000000000000600052602260045260246000fd5b6000600282049050600182168061154e57607f821691505b60208210810361156157611560611507565b5b50919050565b60008190508160005260206000209050919050565b60006020601f8301049050919050565b600082821b905092915050565b6000600883026115c97fffffffffffffffffffffffffffffffffffffffffffffffffffffffffffffffff8261158c565b6115d3868361158c565b95508019841693508086168417925050509392505050565b6000819050919050565b600061161061160b611606846110f2565b6115eb565b6110f2565b9050919050565b6000819050919050565b61162a836115f5565b61163e61163682611617565b848454611599565b825550505050565b600090565b611653611646565b61165e818484611621565b505050565b5b818110156116825761167760008261164b565b600181019050611664565b5050565b601f8211156116c75761169881611567565b6116a18461157c565b810160208510156116b0578190505b6116c46116bc8561157c565b830182611663565b50505b505050565b600082821c905092915050565b60006116ea600019846008026116cc565b1980831691505092915050565b600061170383836116d9565b9150826002028217905092915050565b61171c82611279565b67ffffffffffffffff81111561173557611734610fc7565b5b61173f8254611536565b61174a828285611686565b600060209050601f83116001811461177d576000841561176b578287015190505b61177585826116f7565b8655506117dd565b601f19841661178b86611567565b60005b828110156117b35784890151825560018201915060208501945060208101905061178e565b868310156117d057848901516117cc601f8916826116d9565b8355505b6001600288020188555050505b505050505050565b60006117f082611279565b6117fa81856113b2565b935061180a818560208601611295565b61181381610fb6565b840191505092915050565b6000602082019050818103600083015261183881846117e5565b905092915050565b7f4e6f7420617574686f72697a656420746f207665726966790000000000000000600082015250565b60006118766018836113b2565b915061188182611840565b602082019050919050565b600060208201905081810360008301526118a581611869565b9050919050565b7f4e6f204b5943206461746120617661696c61626c6520666f722074686973207560008201527f7365722e00000000000000000000000000000000000000000000000000000000602082015250565b60006119086024836113b2565b9150611913826118ac565b604082019050919050565b60006020820190508181036000830152611937816118fb565b9050919050565b7f4e487b7100000000000000000000000000000000000000000000000000000000600052601160045260246000fd5b6000611978826110f2565b9150611983836110f2565b925082820390508181111561199b5761199a61193e565b5b92915050565b7f4e487b7100000000000000000000000000000000000000000000000000000000600052603260045260246000fd5b7f4f6e6c7920617574686f72697479000000000000000000000000000000000000600082015250565b6000611a06600e836113b2565b9150611a11826119d0565b602082019050919050565b60006020820190508181036000830152611a35816119f9565b905091905056fea264697066735822122008a218bbc9a2a2d0ecf1d7b614da5634874ca44176adfd551ece140964a55a6764736f6c63430008180033",
  "linkReferences": {},
  "deployedLinkReferences": {}
}