{
  "_format": "hh-sol-artifact-1",
  "contractName": "KYCRegistryV31",
  "sourceName": "contracts/KYCRegisterV3_1.sol",
  "abi": [
    {
      "inputs": [],
      "name": "InvalidInitialization",
      "type": "error"
    },
    {
      "inputs": [],
      "name": "NotInitializing",
      "type": "error"
    },
    {
      "anonymous": false,
      "inputs": [
        {
          "indexed": false,
          "internalType": "uint64",
          "name": "version",
          "type": "uint64"
        }
      ],
      "name": "Initialized",
      "type": "event"
    },
    {
      "anonymous": false,
      "inputs": [
        {
          "indexed": true,
          "internalType": "address",
          "name": "user",
          "type": "address"
        },
        {
          "indexed": false,
          "internalType": "string",
          "name": "ipfsHash",
          "type": "string"
        }
      ],
      "name": "KYCSubmitted",
      "type": "event"
    },
    {
      "anonymous": false,
      "inputs": [
        {
          "indexed": true,
          "internalType": "address",
          "name": "user",
          "type": "address"
        },
        {
          "indexed": false,
          "internalType": "bool",
          "name": "verified",
          "type": "bool"
        }
      ],
      "name": "KYCVerified",
      "type": "event"
    },
    {
      "anonymous": false,
      "inputs": [
        {
          "indexed": true,
          "internalType": "address",
          "name": "user",
          "type": "address"
        },
        {
          "indexed": false,
          "internalType": "address",
          "name": "verifier",
          "type": "address"
        }
      ],
      "name": "VerifierAccessGranted",
      "type": "event"
    },
    {
      "anonymous": false,
      "inputs": [
        {
          "indexed": true,
          "internalType": "address",
          "name": "user",
          "type": "address"
        },
        {
          "indexed": false,
          "internalType": "address",
          "name": "verifier",
          "type": "address"
        }
      ],
      "name": "VerifierAccessRevoked",
      "type": "event"
    },
    {
      "inputs": [
        {
          "internalType": "address",
          "name": "_verifier",
          "type": "address"
        }
      ],
      "name": "addVerifier",
      "outputs": [],
      "stateMutability": "nonpayable",
      "type": "function"
    },
    {
      "inputs": [],
      "name": "authority",
      "outputs": [
        {
          "internalType": "address",
          "name": "",
          "type": "address"
        }
      ],
      "stateMutability": "view",
      "type": "function"
    },
    {
      "inputs": [
        {
          "internalType": "address",
          "name": "_verifier",
          "type": "address"
        }
      ],
      "name": "disableVerifier",
      "outputs": [],
      "stateMutability": "nonpayable",
      "type": "function"
    },
    {
      "inputs": [
        {
          "internalType": "address",
          "name": "_user",
          "type": "address"
        }
      ],
      "name": "getKYCData",
      "outputs": [
        {
          "components": [
            {
              "internalType": "string",
              "name": "ipfsHash",
              "type": "string"
            },
            {
              "internalType": "bool",
              "name": "verified",
              "type": "bool"
            },
            {
              "internalType": "uint256",
              "name": "time",
              "type": "uint256"
            }
          ],
          "internalType": "struct KYCRegistry.KYCData",
          "name": "",
          "type": "tuple"
        }
      ],
      "stateMutability": "view",
      "type": "function"
    },
    {
      "inputs": [
        {
          "internalType": "address",
          "name": "_org",
          "type": "address"
        }
      ],
      "name": "getOrgAccessKYC",
      "outputs": [
        {
          "internalType": "address[]",
          "name": "",
          "type": "address[]"
        }
      ],
      "stateMutability": "view",
      "type": "function"
    },
    {
      "inputs": [
        {
          "internalType": "uint256",
          "name": "_nid",
          "type": "uint256"
        }
      ],
      "name": "getWalletOwner",
      "outputs": [
        {
          "internalType": "address",
          "name": "",
          "type": "address"
        }
      ],
      "stateMutability": "view",
      "type": "function"
    },
    {
      "inputs": [
        {
          "internalType": "address",
          "name": "_verifier",
          "type": "address"
        }
      ],
      "name": "grantAccess",
      "outputs": [],
      "stateMutability": "nonpayable",
      "type": "function"
    },
    {
      "inputs": [],
      "name": "initialize",
      "outputs": [],
      "stateMutability": "nonpayable",
      "type": "function"
    },
    {
      "inputs": [
        {
          "internalType": "address",
          "name": "",
          "type": "address"
        }
      ],
      "name": "listOfVerifier",
      "outputs": [
        {
          "internalType": "bool",
          "name": "",
          "type": "bool"
        }
      ],
      "stateMutability": "view",
      "type": "function"
    },
    {
      "inputs": [
        {
          "internalType": "address",
          "name": "",
          "type": "address"
        },
        {
          "internalType": "uint256",
          "name": "",
          "type": "uint256"
        }
      ],
      "name": "orgToCitizens",
      "outputs": [
        {
          "internalType": "address",
          "name": "",
          "type": "address"
        }
      ],
      "stateMutability": "view",
      "type": "function"
    },
    {
      "inputs": [
        {
          "internalType": "address",
          "name": "_verifier",
          "type": "address"
        }
      ],
      "name": "revokeAccess",
      "outputs": [],
      "stateMutability": "nonpayable",
      "type": "function"
    },
    {
      "inputs": [
        {
          "internalType": "address",
          "name": "_walletContract",
          "type": "address"
        }
      ],
      "name": "setWalletContract",
      "outputs": [],
      "stateMutability": "nonpayable",
      "type": "function"
    },
    {
      "inputs": [
        {
          "internalType": "string",
          "name": "_ipfsHash",
          "type": "string"
        },
        {
          "internalType": "uint256",
          "name": "_nid",
          "type": "uint256"
        }
      ],
      "name": "submitKYC",
      "outputs": [],
      "stateMutability": "nonpayable",
      "type": "function"
    },
    {
      "inputs": [
        {
          "internalType": "address",
          "name": "",
          "type": "address"
        },
        {
          "internalType": "uint256",
          "name": "",
          "type": "uint256"
        }
      ],
      "name": "userGrantedAccess",
      "outputs": [
        {
          "internalType": "address",
          "name": "",
          "type": "address"
        }
      ],
      "stateMutability": "view",
      "type": "function"
    },
    {
      "inputs": [
        {
          "internalType": "address",
          "name": "",
          "type": "address"
        },
        {
          "internalType": "address",
          "name": "",
          "type": "address"
        }
      ],
      "name": "verifierPermissions",
      "outputs": [
        {
          "internalType": "bool",
          "name": "",
          "type": "bool"
        }
      ],
      "stateMutability": "view",
      "type": "function"
    },
    {
      "inputs": [
        {
          "internalType": "address",
          "name": "_user",
          "type": "address"
        },
        {
          "internalType": "bool",
          "name": "_verified",
          "type": "bool"
        }
      ],
      "name": "verifyKYC",
      "outputs": [],
      "stateMutability": "nonpayable",
      "type": "function"
    },
    {
      "inputs": [],
      "name": "walletContract",
      "outputs": [
        {
          "internalType": "contract IWalletContract",
          "name": "",
          "type": "address"
        }
      ],
      "stateMutability": "view",
      "type": "function"
    }
  ],
  "bytecode": "0x608060405234801561001057600080fd5b50612766806100206000396000f3fe608060405234801561001057600080fd5b506004361061010b5760003560e01c8063978575ea116100a2578063b9a0a5a511610071578063b9a0a5a51461029e578063bf7e214f146102ce578063cc346726146102ec578063d0ed5c2f1461031c578063d114ba271461033a5761010b565b8063978575ea146101f2578063aa2270c314610222578063ab47a2f914610252578063b4a688d1146102825761010b565b8063474adb8f116100de578063474adb8f146101945780638129fc1c146101b057806385e68531146101ba5780639000b3d6146101d65761010b565b80630ae5e7391461011057806327ccdbc51461012c5780633b03790c1461014857806344cfd45614610164575b600080fd5b61012a60048036038101906101259190611932565b61036a565b005b61014660048036038101906101419190611932565b61061c565b005b610162600480360381019061015d9190611adb565b6106ee565b005b61017e60048036038101906101799190611b37565b61087e565b60405161018b9190611b73565b60405180910390f35b6101ae60048036038101906101a99190611bc6565b610923565b005b6101b8610ba8565b005b6101d460048036038101906101cf9190611932565b610d6d565b005b6101f060048036038101906101eb9190611932565b6110e0565b005b61020c60048036038101906102079190611c06565b6111c9565b6040516102199190611b73565b60405180910390f35b61023c60048036038101906102379190611c46565b611217565b6040516102499190611c95565b60405180910390f35b61026c60048036038101906102679190611932565b611246565b6040516102799190611d9d565b60405180910390f35b61029c60048036038101906102979190611932565b61152f565b005b6102b860048036038101906102b39190611c06565b611618565b6040516102c59190611b73565b60405180910390f35b6102d6611666565b6040516102e39190611b73565b60405180910390f35b61030660048036038101906103019190611932565b61168a565b6040516103139190611c95565b60405180910390f35b6103246116aa565b6040516103319190611e1e565b60405180910390f35b610354600480360381019061034f9190611932565b6116d0565b6040516103619190611ef7565b60405180910390f35b600260008273ffffffffffffffffffffffffffffffffffffffff1673ffffffffffffffffffffffffffffffffffffffff16815260200190815260200160002060009054906101000a900460ff166103f6576040517f08c379a00000000000000000000000000000000000000000000000000000000081526004016103ed90611f76565b60405180910390fd5b6001600360003373ffffffffffffffffffffffffffffffffffffffff1673ffffffffffffffffffffffffffffffffffffffff16815260200190815260200160002060008373ffffffffffffffffffffffffffffffffffffffff1673ffffffffffffffffffffffffffffffffffffffff16815260200190815260200160002060006101000a81548160ff021916908315150217905550600460003373ffffffffffffffffffffffffffffffffffffffff1673ffffffffffffffffffffffffffffffffffffffff168152602001908152602001600020819080600181540180825580915050600190039060005260206000200160009091909190916101000a81548173ffffffffffffffffffffffffffffffffffffffff021916908373ffffffffffffffffffffffffffffffffffffffff160217905550600660008273ffffffffffffffffffffffffffffffffffffffff1673ffffffffffffffffffffffffffffffffffffffff168152602001908152602001600020339080600181540180825580915050600190039060005260206000200160009091909190916101000a81548173ffffffffffffffffffffffffffffffffffffffff021916908373ffffffffffffffffffffffffffffffffffffffff1602179055503373ffffffffffffffffffffffffffffffffffffffff167f2bfb37b25e6fbbc82573d0ca66d84b9943f3d136c3325e3f352c5b7b7baac4a2826040516106119190611b73565b60405180910390a250565b60008054906101000a900473ffffffffffffffffffffffffffffffffffffffff1673ffffffffffffffffffffffffffffffffffffffff163373ffffffffffffffffffffffffffffffffffffffff16146106aa576040517f08c379a00000000000000000000000000000000000000000000000000000000081526004016106a190611fe2565b60405180910390fd5b80600560006101000a81548173ffffffffffffffffffffffffffffffffffffffff021916908373ffffffffffffffffffffffffffffffffffffffff16021790555050565b3373ffffffffffffffffffffffffffffffffffffffff1661070e8261087e565b73ffffffffffffffffffffffffffffffffffffffff1614610764576040517f08c379a000000000000000000000000000000000000000000000000000000000815260040161075b90612074565b60405180910390fd5b600160003373ffffffffffffffffffffffffffffffffffffffff1673ffffffffffffffffffffffffffffffffffffffff168152602001908152602001600020604051806060016040528084815260200160001515815260200142815250908060018154018082558091505060019003906000526020600020906003020160009091909190915060008201518160000190816107ff9190612296565b5060208201518160010160006101000a81548160ff0219169083151502179055506040820151816002015550503373ffffffffffffffffffffffffffffffffffffffff167fe3f81b273b142548431346476607dda7126d68317c9b8a1bbee298bc274dc5b08360405161087291906123a1565b60405180910390a25050565b6000600560009054906101000a900473ffffffffffffffffffffffffffffffffffffffff1673ffffffffffffffffffffffffffffffffffffffff166344cfd456836040518263ffffffff1660e01b81526004016108db91906123d2565b602060405180830381865afa1580156108f8573d6000803e3d6000fd5b505050506040513d601f19601f8201168201806040525081019061091c9190612402565b9050919050565b600260003373ffffffffffffffffffffffffffffffffffffffff1673ffffffffffffffffffffffffffffffffffffffff16815260200190815260200160002060009054906101000a900460ff166109af576040517f08c379a00000000000000000000000000000000000000000000000000000000081526004016109a690611f76565b60405180910390fd5b60011515600360008473ffffffffffffffffffffffffffffffffffffffff1673ffffffffffffffffffffffffffffffffffffffff16815260200190815260200160002060003373ffffffffffffffffffffffffffffffffffffffff1673ffffffffffffffffffffffffffffffffffffffff16815260200190815260200160002060009054906101000a900460ff16151514610a7f576040517f08c379a0000000000000000000000000000000000000000000000000000000008152600401610a769061247b565b60405180910390fd5b6000610a8a83611829565b905060008111610acf576040517f08c379a0000000000000000000000000000000000000000000000000000000008152600401610ac69061250d565b60405180910390fd5b81600160008573ffffffffffffffffffffffffffffffffffffffff1673ffffffffffffffffffffffffffffffffffffffff168152602001908152602001600020600183610b1c919061255c565b81548110610b2d57610b2c612590565b5b906000526020600020906003020160010160006101000a81548160ff0219169083151502179055508273ffffffffffffffffffffffffffffffffffffffff167f7a02eb9b107b2ab713e88c3cd7ac538e5c21b689d0f1b1f22367578b28fc5d0983604051610b9b9190611c95565b60405180910390a2505050565b6000610bb2611875565b905060008160000160089054906101000a900460ff1615905060008260000160009054906101000a900467ffffffffffffffff1690506000808267ffffffffffffffff16148015610c005750825b9050600060018367ffffffffffffffff16148015610c35575060003073ffffffffffffffffffffffffffffffffffffffff163b145b905081158015610c43575080155b15610c7a576040517ff92ee8a900000000000000000000000000000000000000000000000000000000815260040160405180910390fd5b60018560000160006101000a81548167ffffffffffffffff021916908367ffffffffffffffff1602179055508315610cca5760018560000160086101000a81548160ff0219169083151502179055505b336000806101000a81548173ffffffffffffffffffffffffffffffffffffffff021916908373ffffffffffffffffffffffffffffffffffffffff1602179055508315610d665760008560000160086101000a81548160ff0219169083151502179055507fc7f505b2f371ae2175ee4913f4499e1f2633a7b5936321eed1cdaeb6115181d26001604051610d5d919061260e565b60405180910390a15b5050505050565b600260008273ffffffffffffffffffffffffffffffffffffffff1673ffffffffffffffffffffffffffffffffffffffff16815260200190815260200160002060009054906101000a900460ff16610df9576040517f08c379a0000000000000000000000000000000000000000000000000000000008152600401610df090611f76565b60405180910390fd5b6000600360003373ffffffffffffffffffffffffffffffffffffffff1673ffffffffffffffffffffffffffffffffffffffff16815260200190815260200160002060008373ffffffffffffffffffffffffffffffffffffffff1673ffffffffffffffffffffffffffffffffffffffff16815260200190815260200160002060006101000a81548160ff0219169083151502179055506000600660008373ffffffffffffffffffffffffffffffffffffffff1673ffffffffffffffffffffffffffffffffffffffff168152602001908152602001600020905060005b8180549050811015611053573373ffffffffffffffffffffffffffffffffffffffff16828281548110610f0a57610f09612590565b5b9060005260206000200160009054906101000a900473ffffffffffffffffffffffffffffffffffffffff1673ffffffffffffffffffffffffffffffffffffffff1603611046578160018380549050610f62919061255c565b81548110610f7357610f72612590565b5b9060005260206000200160009054906101000a900473ffffffffffffffffffffffffffffffffffffffff16828281548110610fb157610fb0612590565b5b9060005260206000200160006101000a81548173ffffffffffffffffffffffffffffffffffffffff021916908373ffffffffffffffffffffffffffffffffffffffff1602179055508180548061100a57611009612629565b5b6001900381819060005260206000200160006101000a81549073ffffffffffffffffffffffffffffffffffffffff0219169055905550506110dd565b8080600101915050610ed4565b503373ffffffffffffffffffffffffffffffffffffffff167ff06057cc48dd5f9878f47f79f2df8762ff5ba40b0fc2712114a3b2313774f5928360405161109a9190611b73565b60405180910390a26040517f08c379a00000000000000000000000000000000000000000000000000000000081526004016110d4906126a4565b60405180910390fd5b50565b60008054906101000a900473ffffffffffffffffffffffffffffffffffffffff1673ffffffffffffffffffffffffffffffffffffffff163373ffffffffffffffffffffffffffffffffffffffff161461116e576040517f08c379a000000000000000000000000000000000000000000000000000000000815260040161116590611fe2565b60405180910390fd5b6001600260008373ffffffffffffffffffffffffffffffffffffffff1673ffffffffffffffffffffffffffffffffffffffff16815260200190815260200160002060006101000a81548160ff02191690831515021790555050565b600460205281600052604060002081815481106111e557600080fd5b906000526020600020016000915091509054906101000a900473ffffffffffffffffffffffffffffffffffffffff1681565b60036020528160005260406000206020528060005260406000206000915091509054906101000a900460ff1681565b61124e61189d565b600260003373ffffffffffffffffffffffffffffffffffffffff1673ffffffffffffffffffffffffffffffffffffffff16815260200190815260200160002060009054906101000a900460ff166112da576040517f08c379a00000000000000000000000000000000000000000000000000000000081526004016112d190611f76565b60405180910390fd5b60011515600360008473ffffffffffffffffffffffffffffffffffffffff1673ffffffffffffffffffffffffffffffffffffffff16815260200190815260200160002060003373ffffffffffffffffffffffffffffffffffffffff1673ffffffffffffffffffffffffffffffffffffffff16815260200190815260200160002060009054906101000a900460ff161515146113aa576040517f08c379a00000000000000000000000000000000000000000000000000000000081526004016113a19061247b565b60405180910390fd5b60006113b583611829565b9050600081116113fa576040517f08c379a00000000000000000000000000000000000000000000000000000000081526004016113f19061250d565b60405180910390fd5b600160008473ffffffffffffffffffffffffffffffffffffffff1673ffffffffffffffffffffffffffffffffffffffff168152602001908152602001600020600182611446919061255c565b8154811061145757611456612590565b5b9060005260206000209060030201604051806060016040529081600082018054611480906120c3565b80601f01602080910402602001604051908101604052809291908181526020018280546114ac906120c3565b80156114f95780601f106114ce576101008083540402835291602001916114f9565b820191906000526020600020905b8154815290600101906020018083116114dc57829003601f168201915b505050505081526020016001820160009054906101000a900460ff16151515158152602001600282015481525050915050919050565b60008054906101000a900473ffffffffffffffffffffffffffffffffffffffff1673ffffffffffffffffffffffffffffffffffffffff163373ffffffffffffffffffffffffffffffffffffffff16146115bd576040517f08c379a00000000000000000000000000000000000000000000000000000000081526004016115b490611fe2565b60405180910390fd5b6000600260008373ffffffffffffffffffffffffffffffffffffffff1673ffffffffffffffffffffffffffffffffffffffff16815260200190815260200160002060006101000a81548160ff02191690831515021790555050565b6006602052816000526040600020818154811061163457600080fd5b906000526020600020016000915091509054906101000a900473ffffffffffffffffffffffffffffffffffffffff1681565b60008054906101000a900473ffffffffffffffffffffffffffffffffffffffff1681565b60026020528060005260406000206000915054906101000a900460ff1681565b600560009054906101000a900473ffffffffffffffffffffffffffffffffffffffff1681565b6060600260008373ffffffffffffffffffffffffffffffffffffffff1673ffffffffffffffffffffffffffffffffffffffff16815260200190815260200160002060009054906101000a900460ff1661175e576040517f08c379a000000000000000000000000000000000000000000000000000000000815260040161175590612710565b60405180910390fd5b600660008373ffffffffffffffffffffffffffffffffffffffff1673ffffffffffffffffffffffffffffffffffffffff16815260200190815260200160002080548060200260200160405190810160405280929190818152602001828054801561181d57602002820191906000526020600020905b8160009054906101000a900473ffffffffffffffffffffffffffffffffffffffff1673ffffffffffffffffffffffffffffffffffffffff16815260200190600101908083116117d3575b50505050509050919050565b6000600160008373ffffffffffffffffffffffffffffffffffffffff1673ffffffffffffffffffffffffffffffffffffffff168152602001908152602001600020805490509050919050565b60007ff0c57e16840df040f15088dc2f81fe391c3923bec73e23a9662efc9c229c6a00905090565b604051806060016040528060608152602001600015158152602001600081525090565b6000604051905090565b600080fd5b600080fd5b600073ffffffffffffffffffffffffffffffffffffffff82169050919050565b60006118ff826118d4565b9050919050565b61190f816118f4565b811461191a57600080fd5b50565b60008135905061192c81611906565b92915050565b600060208284031215611948576119476118ca565b5b60006119568482850161191d565b91505092915050565b600080fd5b600080fd5b6000601f19601f8301169050919050565b7f4e487b7100000000000000000000000000000000000000000000000000000000600052604160045260246000fd5b6119b282611969565b810181811067ffffffffffffffff821117156119d1576119d061197a565b5b80604052505050565b60006119e46118c0565b90506119f082826119a9565b919050565b600067ffffffffffffffff821115611a1057611a0f61197a565b5b611a1982611969565b9050602081019050919050565b82818337600083830152505050565b6000611a48611a43846119f5565b6119da565b905082815260208101848484011115611a6457611a63611964565b5b611a6f848285611a26565b509392505050565b600082601f830112611a8c57611a8b61195f565b5b8135611a9c848260208601611a35565b91505092915050565b6000819050919050565b611ab881611aa5565b8114611ac357600080fd5b50565b600081359050611ad581611aaf565b92915050565b60008060408385031215611af257611af16118ca565b5b600083013567ffffffffffffffff811115611b1057611b0f6118cf565b5b611b1c85828601611a77565b9250506020611b2d85828601611ac6565b9150509250929050565b600060208284031215611b4d57611b4c6118ca565b5b6000611b5b84828501611ac6565b91505092915050565b611b6d816118f4565b82525050565b6000602082019050611b886000830184611b64565b92915050565b60008115159050919050565b611ba381611b8e565b8114611bae57600080fd5b50565b600081359050611bc081611b9a565b92915050565b60008060408385031215611bdd57611bdc6118ca565b5b6000611beb8582860161191d565b9250506020611bfc85828601611bb1565b9150509250929050565b60008060408385031215611c1d57611c1c6118ca565b5b6000611c2b8582860161191d565b9250506020611c3c85828601611ac6565b9150509250929050565b60008060408385031215611c5d57611c5c6118ca565b5b6000611c6b8582860161191d565b9250506020611c7c8582860161191d565b9150509250929050565b611c8f81611b8e565b82525050565b6000602082019050611caa6000830184611c86565b92915050565b600081519050919050565b600082825260208201905092915050565b60005b83811015611cea578082015181840152602081019050611ccf565b60008484015250505050565b6000611d0182611cb0565b611d0b8185611cbb565b9350611d1b818560208601611ccc565b611d2481611969565b840191505092915050565b611d3881611b8e565b82525050565b611d4781611aa5565b82525050565b60006060830160008301518482036000860152611d6a8282611cf6565b9150506020830151611d7f6020860182611d2f565b506040830151611d926040860182611d3e565b508091505092915050565b60006020820190508181036000830152611db78184611d4d565b905092915050565b6000819050919050565b6000611de4611ddf611dda846118d4565b611dbf565b6118d4565b9050919050565b6000611df682611dc9565b9050919050565b6000611e0882611deb565b9050919050565b611e1881611dfd565b82525050565b6000602082019050611e336000830184611e0f565b92915050565b600081519050919050565b600082825260208201905092915050565b6000819050602082019050919050565b611e6e816118f4565b82525050565b6000611e808383611e65565b60208301905092915050565b6000602082019050919050565b6000611ea482611e39565b611eae8185611e44565b9350611eb983611e55565b8060005b83811015611eea578151611ed18882611e74565b9750611edc83611e8c565b925050600181019050611ebd565b5085935050505092915050565b60006020820190508181036000830152611f118184611e99565b905092915050565b600082825260208201905092915050565b7f5665726966696572206e6f7420666f756e6420696e206c697374000000000000600082015250565b6000611f60601a83611f19565b9150611f6b82611f2a565b602082019050919050565b60006020820190508181036000830152611f8f81611f53565b9050919050565b7f4f6e6c7920617574686f72697479000000000000000000000000000000000000600082015250565b6000611fcc600e83611f19565b9150611fd782611f96565b602082019050919050565b60006020820190508181036000830152611ffb81611fbf565b9050919050565b7f4e6f7420617574686f72697a656420746f207375626d6974204b59432064617460008201527f6100000000000000000000000000000000000000000000000000000000000000602082015250565b600061205e602183611f19565b915061206982612002565b604082019050919050565b6000602082019050818103600083015261208d81612051565b9050919050565b7f4e487b7100000000000000000000000000000000000000000000000000000000600052602260045260246000fd5b600060028204905060018216806120db57607f821691505b6020821081036120ee576120ed612094565b5b50919050565b60008190508160005260206000209050919050565b60006020601f8301049050919050565b600082821b905092915050565b6000600883026121567fffffffffffffffffffffffffffffffffffffffffffffffffffffffffffffffff82612119565b6121608683612119565b95508019841693508086168417925050509392505050565b600061219361218e61218984611aa5565b611dbf565b611aa5565b9050919050565b6000819050919050565b6121ad83612178565b6121c16121b98261219a565b848454612126565b825550505050565b600090565b6121d66121c9565b6121e18184846121a4565b505050565b5b81811015612205576121fa6000826121ce565b6001810190506121e7565b5050565b601f82111561224a5761221b816120f4565b61222484612109565b81016020851015612233578190505b61224761223f85612109565b8301826121e6565b50505b505050565b600082821c905092915050565b600061226d6000198460080261224f565b1980831691505092915050565b6000612286838361225c565b9150826002028217905092915050565b61229f82611cb0565b67ffffffffffffffff8111156122b8576122b761197a565b5b6122c282546120c3565b6122cd828285612209565b600060209050601f83116001811461230057600084156122ee578287015190505b6122f8858261227a565b865550612360565b601f19841661230e866120f4565b60005b8281101561233657848901518255600182019150602085019450602081019050612311565b86831015612353578489015161234f601f89168261225c565b8355505b6001600288020188555050505b505050505050565b600061237382611cb0565b61237d8185611f19565b935061238d818560208601611ccc565b61239681611969565b840191505092915050565b600060208201905081810360008301526123bb8184612368565b905092915050565b6123cc81611aa5565b82525050565b60006020820190506123e760008301846123c3565b92915050565b6000815190506123fc81611906565b92915050565b600060208284031215612418576124176118ca565b5b6000612426848285016123ed565b91505092915050565b7f4e6f7420617574686f72697a656420746f207665726966790000000000000000600082015250565b6000612465601883611f19565b91506124708261242f565b602082019050919050565b6000602082019050818103600083015261249481612458565b9050919050565b7f4e6f204b5943206461746120617661696c61626c6520666f722074686973207560008201527f7365722e00000000000000000000000000000000000000000000000000000000602082015250565b60006124f7602483611f19565b91506125028261249b565b604082019050919050565b60006020820190508181036000830152612526816124ea565b9050919050565b7f4e487b7100000000000000000000000000000000000000000000000000000000600052601160045260246000fd5b600061256782611aa5565b915061257283611aa5565b925082820390508181111561258a5761258961252d565b5b92915050565b7f4e487b7100000000000000000000000000000000000000000000000000000000600052603260045260246000fd5b6000819050919050565b600067ffffffffffffffff82169050919050565b60006125f86125f36125ee846125bf565b611dbf565b6125c9565b9050919050565b612608816125dd565b82525050565b600060208201905061262360008301846125ff565b92915050565b7f4e487b7100000000000000000000000000000000000000000000000000000000600052603160045260246000fd5b7f436974697a656e206e6f7420666f756e64000000000000000000000000000000600082015250565b600061268e601183611f19565b915061269982612658565b602082019050919050565b600060208201905081810360008301526126bd81612681565b9050919050565b7f56657266696572206e6f7420666f756e64000000000000000000000000000000600082015250565b60006126fa601183611f19565b9150612705826126c4565b602082019050919050565b60006020820190508181036000830152612729816126ed565b905091905056fea2646970667358221220822afbc9d26996326706cb4b4302427721240a55e2172a2151495f27423deeb964736f6c63430008180033",
  "linkReferences": {},
  "deployedLinkReferences": {}
}