{
  "_format": "hh-sol-artifact-1",
  "contractName": "WalletContract",
  "sourceName": "contracts/WalletContractV1.sol",
  "abi": [
    {
      "inputs": [],
      "name": "InvalidInitialization",
      "type": "error"
    },
    {
      "inputs": [],
      "name": "NotInitializing",
      "type": "error"
    },
    {
      "anonymous": false,
      "inputs": [
        {
          "indexed": false,
          "internalType": "uint64",
          "name": "version",
          "type": "uint64"
        }
      ],
      "name": "Initialized",
      "type": "event"
    },
    {
      "inputs": [
        {
          "internalType": "uint256",
          "name": "",
          "type": "uint256"
        }
      ],
      "name": "admins",
      "outputs": [
        {
          "internalType": "address",
          "name": "",
          "type": "address"
        }
      ],
      "stateMutability": "view",
      "type": "function"
    },
    {
      "inputs": [],
      "name": "deployer",
      "outputs": [
        {
          "internalType": "address",
          "name": "",
          "type": "address"
        }
      ],
      "stateMutability": "view",
      "type": "function"
    },
    {
      "inputs": [
        {
          "internalType": "uint256",
          "name": "_nid",
          "type": "uint256"
        }
      ],
      "name": "getWallet",
      "outputs": [
        {
          "internalType": "string",
          "name": "",
          "type": "string"
        }
      ],
      "stateMutability": "view",
      "type": "function"
    },
    {
      "inputs": [
        {
          "internalType": "address",
          "name": "_deployer",
          "type": "address"
        }
      ],
      "name": "initialize",
      "outputs": [],
      "stateMutability": "nonpayable",
      "type": "function"
    },
    {
      "inputs": [
        {
          "internalType": "address",
          "name": "_admin",
          "type": "address"
        }
      ],
      "name": "isAdmin",
      "outputs": [
        {
          "internalType": "bool",
          "name": "",
          "type": "bool"
        }
      ],
      "stateMutability": "view",
      "type": "function"
    },
    {
      "inputs": [
        {
          "internalType": "uint256",
          "name": "_nid",
          "type": "uint256"
        }
      ],
      "name": "removeWallet",
      "outputs": [],
      "stateMutability": "nonpayable",
      "type": "function"
    },
    {
      "inputs": [
        {
          "internalType": "uint256",
          "name": "_nid",
          "type": "uint256"
        },
        {
          "internalType": "string",
          "name": "_shard3",
          "type": "string"
        }
      ],
      "name": "setWallet",
      "outputs": [],
      "stateMutability": "nonpayable",
      "type": "function"
    },
    {
      "inputs": [
        {
          "internalType": "address",
          "name": "_newDeployer",
          "type": "address"
        }
      ],
      "name": "updateDeployer",
      "outputs": [],
      "stateMutability": "nonpayable",
      "type": "function"
    },
    {
      "inputs": [
        {
          "internalType": "uint256",
          "name": "_nid",
          "type": "uint256"
        },
        {
          "internalType": "string",
          "name": "_shard3",
          "type": "string"
        }
      ],
      "name": "updateWallet",
      "outputs": [],
      "stateMutability": "nonpayable",
      "type": "function"
    },
    {
      "inputs": [
        {
          "internalType": "uint256",
          "name": "",
          "type": "uint256"
        }
      ],
      "name": "wallets",
      "outputs": [
        {
          "internalType": "string",
          "name": "",
          "type": "string"
        }
      ],
      "stateMutability": "view",
      "type": "function"
    }
  ],
  "bytecode": "0x608060405234801561001057600080fd5b50611235806100206000396000f3fe608060405234801561001057600080fd5b506004361061009e5760003560e01c80639250810911610066578063925081091461017f578063c4d66de81461019b578063d04731d4146101b7578063d5f39488146101d3578063efa95491146101f15761009e565b806314bfd6d0146100a357806324d7806c146100d35780634d413e7d146101035780635470b13b1461011f5780637ad71f721461014f575b600080fd5b6100bd60048036038101906100b89190610a09565b61020d565b6040516100ca9190610a77565b60405180910390f35b6100ed60048036038101906100e89190610abe565b61024c565b6040516100fa9190610b06565b60405180910390f35b61011d60048036038101906101189190610abe565b6102f4565b005b61013960048036038101906101349190610a09565b6103c5565b6040516101469190610bb1565b60405180910390f35b61016960048036038101906101649190610a09565b61046a565b6040516101769190610bb1565b60405180910390f35b61019960048036038101906101949190610d08565b61050a565b005b6101b560048036038101906101b09190610abe565b6105cd565b005b6101d160048036038101906101cc9190610a09565b610793565b005b6101db610853565b6040516101e89190610a77565b60405180910390f35b61020b60048036038101906102069190610d08565b610877565b005b6001818154811061021d57600080fd5b906000526020600020016000915054906101000a900473ffffffffffffffffffffffffffffffffffffffff1681565b600080600090505b6001805490508110156102e9578273ffffffffffffffffffffffffffffffffffffffff166001828154811061028c5761028b610d64565b5b9060005260206000200160009054906101000a900473ffffffffffffffffffffffffffffffffffffffff1673ffffffffffffffffffffffffffffffffffffffff16036102dc5760019150506102ef565b8080600101915050610254565b50600090505b919050565b60008054906101000a900473ffffffffffffffffffffffffffffffffffffffff1673ffffffffffffffffffffffffffffffffffffffff163373ffffffffffffffffffffffffffffffffffffffff1614610382576040517f08c379a000000000000000000000000000000000000000000000000000000000815260040161037990610e05565b60405180910390fd5b806000806101000a81548173ffffffffffffffffffffffffffffffffffffffff021916908373ffffffffffffffffffffffffffffffffffffffff16021790555050565b60606002600083815260200190815260200160002080546103e590610e54565b80601f016020809104026020016040519081016040528092919081815260200182805461041190610e54565b801561045e5780601f106104335761010080835404028352916020019161045e565b820191906000526020600020905b81548152906001019060200180831161044157829003601f168201915b50505050509050919050565b6002602052806000526040600020600091509050805461048990610e54565b80601f01602080910402602001604051908101604052809291908181526020018280546104b590610e54565b80156105025780601f106104d757610100808354040283529160200191610502565b820191906000526020600020905b8154815290600101906020018083116104e557829003601f168201915b505050505081565b60008054906101000a900473ffffffffffffffffffffffffffffffffffffffff1673ffffffffffffffffffffffffffffffffffffffff163373ffffffffffffffffffffffffffffffffffffffff16148061056957506105683361024c565b5b6105a8576040517f08c379a000000000000000000000000000000000000000000000000000000000815260040161059f90610ef7565b60405180910390fd5b806002600084815260200190815260200160002090816105c891906110c3565b505050565b60006105d761093a565b905060008160000160089054906101000a900460ff1615905060008260000160009054906101000a900467ffffffffffffffff1690506000808267ffffffffffffffff161480156106255750825b9050600060018367ffffffffffffffff1614801561065a575060003073ffffffffffffffffffffffffffffffffffffffff163b145b905081158015610668575080155b1561069f576040517ff92ee8a900000000000000000000000000000000000000000000000000000000815260040160405180910390fd5b60018560000160006101000a81548167ffffffffffffffff021916908367ffffffffffffffff16021790555083156106ef5760018560000160086101000a81548160ff0219169083151502179055505b856000806101000a81548173ffffffffffffffffffffffffffffffffffffffff021916908373ffffffffffffffffffffffffffffffffffffffff160217905550831561078b5760008560000160086101000a81548160ff0219169083151502179055507fc7f505b2f371ae2175ee4913f4499e1f2633a7b5936321eed1cdaeb6115181d2600160405161078291906111e4565b60405180910390a15b505050505050565b60008054906101000a900473ffffffffffffffffffffffffffffffffffffffff1673ffffffffffffffffffffffffffffffffffffffff163373ffffffffffffffffffffffffffffffffffffffff1614806107f257506107f13361024c565b5b610831576040517f08c379a000000000000000000000000000000000000000000000000000000000815260040161082890610ef7565b60405180910390fd5b6002600082815260200190815260200160002060006108509190610962565b50565b60008054906101000a900473ffffffffffffffffffffffffffffffffffffffff1681565b60008054906101000a900473ffffffffffffffffffffffffffffffffffffffff1673ffffffffffffffffffffffffffffffffffffffff163373ffffffffffffffffffffffffffffffffffffffff1614806108d657506108d53361024c565b5b610915576040517f08c379a000000000000000000000000000000000000000000000000000000000815260040161090c90610ef7565b60405180910390fd5b8060026000848152602001908152602001600020908161093591906110c3565b505050565b60007ff0c57e16840df040f15088dc2f81fe391c3923bec73e23a9662efc9c229c6a00905090565b50805461096e90610e54565b6000825580601f10610980575061099f565b601f01602090049060005260206000209081019061099e91906109a2565b5b50565b5b808211156109bb5760008160009055506001016109a3565b5090565b6000604051905090565b600080fd5b600080fd5b6000819050919050565b6109e6816109d3565b81146109f157600080fd5b50565b600081359050610a03816109dd565b92915050565b600060208284031215610a1f57610a1e6109c9565b5b6000610a2d848285016109f4565b91505092915050565b600073ffffffffffffffffffffffffffffffffffffffff82169050919050565b6000610a6182610a36565b9050919050565b610a7181610a56565b82525050565b6000602082019050610a8c6000830184610a68565b92915050565b610a9b81610a56565b8114610aa657600080fd5b50565b600081359050610ab881610a92565b92915050565b600060208284031215610ad457610ad36109c9565b5b6000610ae284828501610aa9565b91505092915050565b60008115159050919050565b610b0081610aeb565b82525050565b6000602082019050610b1b6000830184610af7565b92915050565b600081519050919050565b600082825260208201905092915050565b60005b83811015610b5b578082015181840152602081019050610b40565b60008484015250505050565b6000601f19601f8301169050919050565b6000610b8382610b21565b610b8d8185610b2c565b9350610b9d818560208601610b3d565b610ba681610b67565b840191505092915050565b60006020820190508181036000830152610bcb8184610b78565b905092915050565b600080fd5b600080fd5b7f4e487b7100000000000000000000000000000000000000000000000000000000600052604160045260246000fd5b610c1582610b67565b810181811067ffffffffffffffff82111715610c3457610c33610bdd565b5b80604052505050565b6000610c476109bf565b9050610c538282610c0c565b919050565b600067ffffffffffffffff821115610c7357610c72610bdd565b5b610c7c82610b67565b9050602081019050919050565b82818337600083830152505050565b6000610cab610ca684610c58565b610c3d565b905082815260208101848484011115610cc757610cc6610bd8565b5b610cd2848285610c89565b509392505050565b600082601f830112610cef57610cee610bd3565b5b8135610cff848260208601610c98565b91505092915050565b60008060408385031215610d1f57610d1e6109c9565b5b6000610d2d858286016109f4565b925050602083013567ffffffffffffffff811115610d4e57610d4d6109ce565b5b610d5a85828601610cda565b9150509250929050565b7f4e487b7100000000000000000000000000000000000000000000000000000000600052603260045260246000fd5b7f4f6e6c79206465706c6f7965722063616e2063616c6c20746869732066756e6360008201527f74696f6e00000000000000000000000000000000000000000000000000000000602082015250565b6000610def602483610b2c565b9150610dfa82610d93565b604082019050919050565b60006020820190508181036000830152610e1e81610de2565b9050919050565b7f4e487b7100000000000000000000000000000000000000000000000000000000600052602260045260246000fd5b60006002820490506001821680610e6c57607f821691505b602082108103610e7f57610e7e610e25565b5b50919050565b7f4f6e6c79206465706c6f796572206f722061646d696e732063616e2063616c6c60008201527f20746869732066756e6374696f6e000000000000000000000000000000000000602082015250565b6000610ee1602e83610b2c565b9150610eec82610e85565b604082019050919050565b60006020820190508181036000830152610f1081610ed4565b9050919050565b60008190508160005260206000209050919050565b60006020601f8301049050919050565b600082821b905092915050565b600060088302610f797fffffffffffffffffffffffffffffffffffffffffffffffffffffffffffffffff82610f3c565b610f838683610f3c565b95508019841693508086168417925050509392505050565b6000819050919050565b6000610fc0610fbb610fb6846109d3565b610f9b565b6109d3565b9050919050565b6000819050919050565b610fda83610fa5565b610fee610fe682610fc7565b848454610f49565b825550505050565b600090565b611003610ff6565b61100e818484610fd1565b505050565b5b8181101561103257611027600082610ffb565b600181019050611014565b5050565b601f8211156110775761104881610f17565b61105184610f2c565b81016020851015611060578190505b61107461106c85610f2c565b830182611013565b50505b505050565b600082821c905092915050565b600061109a6000198460080261107c565b1980831691505092915050565b60006110b38383611089565b9150826002028217905092915050565b6110cc82610b21565b67ffffffffffffffff8111156110e5576110e4610bdd565b5b6110ef8254610e54565b6110fa828285611036565b600060209050601f83116001811461112d576000841561111b578287015190505b61112585826110a7565b86555061118d565b601f19841661113b86610f17565b60005b828110156111635784890151825560018201915060208501945060208101905061113e565b86831015611180578489015161117c601f891682611089565b8355505b6001600288020188555050505b505050505050565b6000819050919050565b600067ffffffffffffffff82169050919050565b60006111ce6111c96111c484611195565b610f9b565b61119f565b9050919050565b6111de816111b3565b82525050565b60006020820190506111f960008301846111d5565b9291505056fea2646970667358221220685b00180de4bd9c5000aecf5a4b5108242cdcafe0ce872637cee8eafd88f8fd64736f6c63430008180033",
  "linkReferences": {},
  "deployedLinkReferences": {}
}